:1000000006308A00922E00000A108A100A11820718
:100010000C340634033409340C00D4326D3865399D
:10002000613A753961003430840083130008031984
:1000300027280130F800F701F70B1C28F80B1B28C4
:100040004A30F700F70B22282528800B19280800D2
:100050003B182C2808122D28081683160812831224
:10006000BB18342888123528881683168812831204
:100070003B193C2808133D280817831608138312E0
:10008000BB19442888134528881783168813000055
:1000900083120814831608104D2883120810831643
:1000A000081083120800BC01831608160030831262
:1000B000081A0130BC048316881600308312881A8F
:1000C0000130F7000310F70D7708BC0483160817FA
:1000D00000308312081B0130F700F70DF70DFC30DC
:1000E000F7057708BC048316881700308312881B35
:1000F0000130F700F70DF70DF70DF830F705770829
:10010000BC043C08F8000800831608108810081189
:100110008312881083168810081688160817881707
:100120008312081583160811000083120814831621
:1001300008100000831253207808BB0008108316B3
:1001400008100000831208148316081000008312A0
:1001500053207808BA000810831608100812881275
:100160000813881383123B0EF700F030F705770869
:100170003A04F8007808BA00BA1FC02883168C2801
:10018000B808031DC5288810C6288814831688104F
:100190000000831208118316081100008312081052
:1001A000831608108312390EBA000F30BA053A08C8
:1001B000BB00282039080F39BA00BB0028200800EE
:1001C0002830A7000C30A8000130A9000630AA0092
:1001D0000810831608108312881083168810831263
:1001E00008118316081108128812081388130810C2
:1001F000881008110F308312B40013200130A600BC
:100200002608033C031C0C290330BB0028200530C2
:10021000B4001320A60A00290230BB0028200530B4
:10022000B4001320A6012608033C031C2329273011
:100230002607840083130008AB00B8012B08B9001F
:100240008420A60A13298A110A12A12E350B292906
:100250002C294030B6002D29B60101303402B607F2
:1002600036088038B700B8013708B9008420080084
:100270003308073A031946290B3A03194B29063A62
:1002800003195329023A031959295E290130B40090
:10029000B50026216329B8010130B900842002305D
:1002A000B400132063290130B4000230B5002621C8
:1002B0006329B8011030B900842063290130B800E7
:1002C0003308B900842008000B08A6008B1383169E
:1002D00003178C170C140000000083120313A61BD5
:1002E0008B1703170C087F390319B8290313A600CD
:1002F00003170D080313A70003170F080313A80023
:100300002608B3003821270803178D000313280897
:1003100003178F0003130B08A9008B138316031711
:100320008C170C140000000083120313A91B8B17F9
:1003300003170C0D0E0D7F390319B8290313A600FE
:1003400003170D080313A70003170F080313A800D2
:100350002608B3003821270803178D000313280847
:1003600003178F008D0A03198F0A031364290317DB
:1003700003130800A1112108831687008312871137
:1003800021122108831687008312071221102108E9
:100390008316870083120714C830B400132021107D
:1003A000210883168700831207100130B400132040
:1003B000A60126080F3C031CF929211621088316E3
:1003C00087008312071AE6290310E7290314A70DF3
:1003D000A80DA1112108831687008312871500003C
:1003E000A111210883168700831287110000A60A35
:1003F000D9292010271920140130B400132021100E
:10040000210883168700831207142708F80028089C
:10041000F9007908A7007808A6002708A90026088F
:10042000A800290CFA00280CF900FA0CF90CFA0CB7
:10043000F90C1F30FA057908F7000F30FA05790832
:10044000F8007A08F9007908A7007808A6002708BC
:10045000A9002608A8002908AB002808AA008E30A9
:10046000F7002B08F8002A08F900FA01F808031D24
:10047000432A7908F800F9010830F702F808031D4B
:10048000432AF7014B2A0310F81B4A2AF90DF80DED
:10049000F703432AF8137A08AD007908AC0078080E
:1004A000AB007708AA0083142D08B1002C08B00017
:1004B0002B08AF002A08AE00B501B4013030B300FC
:1004C0008430B20080308318B306B801B9012F0818
:1004D000B7003308B7062E080319522BB600F700F1
:1004E000320803195B2BB6020319F72A031CB52A3D
:1004F0003308BC00BC173408BB003508BA00B9018A
:100500000310BC0CBB0CBA0CB90CB60B7F2AB71F7E
:100510008C2A38146F2B381036103816313084007E
:100520008313842B3812B71B9F2A361CAA2ABC0CB3
:10053000BB0CBA0CB90CF70A03196A2BAA2ABC1B0C
:10054000AD2A0310B90DBA0DBB0DBC0DF70303198D
:100550006A2B9F2A3817172B38132F08B700B71F9D
:10056000B32ABC17632BBC13632B3208B600F70009
:100570002E08B6022F08BC00BC173008BB0031089B
:10058000BA00B9010310BC0CBB0CBA0CB90CB60B09
:10059000C12AB71FCE2AB8146F2BB8103610B81660
:1005A000353084008313842BB812B71BE12A361C24
:1005B000EC2ABC0CBB0CBA0CB90CF70A03196A2B59
:1005C000EC2ABC1BEF2A0310B90DBA0DBB0DBC0DF4
:1005D000F70303196A2BE12AB817172BB81333084E
:1005E000B700B71FF52ABC17632BBC13632B330866
:1005F000BC00BC173408BB003508BA00B71F042B79
:10060000BC1338156F2B3811B90136103130840006
:100610008313842BB71B2D2B2F08B700361C172BE9
:10062000BC0CBB0CBA0CB90CF70A03196A2BB91F26
:10063000282BBA0A031D282BBB0A031D282BBC0A32
:10064000031D282BBC0CBB0CBA0CF70A03196A2B30
:10065000381BAC2AB81BEE2A4C2B8030BC06BC1FC2
:10066000352B6F2B3308B700422B2F08B700BC087F
:10067000031D422BBB08031D422BBA08031D422B4E
:10068000F701632BBC1B4C2B0310B90DBA0DBB0D2E
:10069000BC0DF70B422B6A2BB71F502BBC17632BDB
:1006A000BC13632B3208F7003308BC003408BB00CE
:1006B0003508BA00632B2E08F7002F08BC0030085D
:1006C000BB003108BA003C08F8003B08F9003A08C2
:1006D000FA00A22BF701F801F901FA01A22BB901E6
:1006E000BA09BB09BC09B909B90A031D7D2BBA0AAD
:1006F000031D7D2BBB0A0319BC0A38188B2AB818B6
:10070000CD2A3819032B322B0008BA07031C8E2B75
:10071000BB0A031D8E2BBC0A031936148403000880
:10072000BB07031C962BBC0A03193614840300086C
:10073000801F803ABC0703183614381A922AB81A58
:10074000D42A0A2B7A08AD007908AC007808AB00EF
:100750007708AA002D08B1002C08B0002B08AF00C4
:100760002A08AE006830B5005A30B4000130B3003A
:100770008030B2002E0803197F2CBA00320803190A
:100780007F2CBA02031CC92B7F30BA0703187F2CB9
:10079000CF2B8130BA02031C7F2C03197F2C3A081F
:1007A000F700F801F901FA01B9012F08B800B817EC
:1007B0003008B7003108B6001930BA003508B60263
:1007C0000318F22B0130B7020318F22BB8020318FA
:1007D000F22BB9020318F22BB90AB80AB70A350886
:1007E000B607242C3408B70203180D2C0130B802C8
:1007F00003180D2CB90203180D2CB90AB80A3408D5
:10080000B7073508B607031C242CB70A031D242C90
:10081000B80A031D242CB90A242C33088038B802E6
:100820000318232C0130B9020318232CB90A33080A
:100830008038B8073408B707031C012CB80A031D19
:10084000012CB90A012C7A14BA0B272C322C031074
:10085000B60DB70DB80DB90D0310FA0DF90DF80D61
:10086000BB0DDE2B3B1C3A2C0310F80CF90CFA0CD8
:10087000BB0C3D2CF70303197F2CBB1B662C03100C
:10088000B60DB70DB80DB90D3508B6020318522CC8
:100890000130B7020318522CB8020318522CB902C7
:1008A000031C752C3408B70203185D2C0130B80204
:1008B00003185D2CB902031C752C33088038B8026C
:1008C0000318662C0130B902031C752CFA0A031DAB
:1008D000752CF90A031D752CF80A031D752CF70AEF
:1008E00003197F2CF80CF90CFA0C2F08BA00330806
:1008F000BA06BA1F7D2CF817832CF813832CF70146
:10090000F801F901FA018A110A12B42E83188B2C0E
:100910003B3084008313F701F801F901FA01BB01B0
:10092000BC01BD01BE013A0839043804370403197B
:10093000C92C2030BF000310B30DB40DB50DB60D9A
:10094000BB0DBC0DBD0DBE0D3A083E02031DB22C01
:1009500039083D02031DB22C38083C02031DB22C9D
:1009600037083B02031CC32C3708BB023808031CA2
:10097000380FBC023908031C390FBD023A08031CAA
:100980003A0FBE020314F70DF80DF90DFA0DBF0B67
:100990009B2C3B088000840A3C088000840A3D08A8
:1009A0008000840A3E08800008000408AB002A0882
:1009B000AD000319672D2908B6002808B5002708DF
:1009C000B4002608B300BA01B9012030B800823063
:1009D000B70033080319592DBB0037080319592DE7
:1009E000BB070318FA2C7F30BB02031C592D0319D7
:1009F000592DFE2C8130BB070318592D3B08F700F9
:100A0000F801F901FA013408BF00BF173508BE002C
:100A10003608BD001830BB00BC013D1C272D3A082C
:100A2000FA07031C192DF90A031D192DF80A0319D9
:100A3000BC173908F907031C202DF80A0319BC1745
:100A40003808B500B5173508F8070318BC17BC0DF2
:100A5000F80CF90CFA0CBF0CBE0CBD0C0310BB0B50
:100A60000C2D0130F7070318592DF81B3E2DBF0D33
:100A7000FA0DF90DF80DF7030319592DBF1F4F2D6E
:100A8000FA0A031D4F2DF90A031D4F2DF80A031D05
:100A90004F2DF80CF90CFA0CF70A0319592D3408EC
:100AA000BC003808BC06BC1F572DF8175D2DF81385
:100AB0005D2DF701F801F901FA017A08A90079081A
:100AC000A8007808A7007708A600AD0BDB2C290842
:100AD000B6002808B5002708B4002608B30033087C
:100AE000B63CB300FA013408B700B4170310B40CD5
:100AF000B50CB60CFA0CF90CF80CF70CB30B762D00
:100B0000B71F8D2DF709F809F909FA09F70A031932
:100B1000F80A0319F90A0319FA0A7A08A9007908E8
:100B2000A8007808A7007708A600A91FA42DAB038A
:100B3000AB16A609A709A809A909A60A0319A70AB5
:100B40000319A80A0319A90A3B30B2009A30B10070
:100B5000CA30B000AF010A30AD002A080319AB0A51
:100B600083142630840083132908B6002808B500B2
:100B70002708B4002608B3003208BA003108B900CB
:100B80003008B8002F08B70086247808F708031D3E
:100B9000DC2D2A0A2D020319DC2D2B080319DE2D6A
:100BA0000F392D020319D62D03180E2EAB1B0E2E56
:100BB0002B1BDE2D20300A2E2030AB05AB1EEC2D7A
:100BC000AB122A08031DAB037708AB002D30B3002E
:100BD00038212B08F700AB012A082D02031DFA2D3E
:100BE0007708AB002E30B30038212B08F7002030F7
:100BF000AB0500303030AB1E0A2EAB122A08031DA5
:100C0000AB037708AB002D30B30038212B08F70079
:100C1000AB013030F7077708B30038218310320872
:100C2000B6003108B5003008B4002F08B300BA018F
:100C3000B901B8010A30B70086247A08B2007908F1
:100C4000B1007808B0007708AF00AD0BB02D8A1165
:100C50000A12D42E2708AE002B08AE06AE1F352E82
:100C600003110310A71B0314682E2708AE002A08DF
:100C7000AF002608AF020319432EAE1F682E0308EB
:100C8000013A8300682E2B08AF002708AF02031932
:100C90004F2EAE1F682E0308013A8300682E2C08E1
:100CA000AF002808AF0203195B2EAE1F682E0308A1
:100CB000013A8300682E2D08AF002908AF020319FE
:100CC000672EAE1F682E0308013A8300682E0310BA
:100CD0000800A6012608033C031C7B2E26080420DE
:100CE000A700831686018312270886002330B400EC
:100CF0001320A60A6A2E8A110A12E82E0330A600D3
:100D0000A61B8F2E26080420A700831686018312B7
:100D1000270886002330B4001320A603802E8A11F2
:100D20000A12F92E03081F398300FF30A100831631
:100D30001F149F141F159F1107309C0083138312EB
:100D4000E0280C3003178D0000308F00031364215E
:100D50000130B400B50026210D3003178D0000309E
:100D60008F0003136421BA297A08A5007908A4002A
:100D70007808A3007708A2000130B4000230B50063
:100D800026215430B30038213A30B30038210230E4
:100D900084002508A9002408A8002308A700220829
:100DA000A6000230AA00D52C4330B3003821A90197
:100DB000A8012030A7008430A6002508AD00240833
:100DC000AC002308AB002208AA002A260318692ECB
:100DD0002508A9002408A8002308A7002208A600C7
:100DE000AD01AC010C30AB008430AA002A260318F8
:060DF0007E2EB32E63000D
:02400E00393F38
:00000001FF
;PIC16F877A
;CRC=906C  CREATED="02-May-25 03:27"
